{
  "contractName": "Community",
  "abi": [
    {
      "inputs": [
        {
          "internalType": "string",
          "name": "_name",
          "type": "string"
        },
        {
          "internalType": "string",
          "name": "_address",
          "type": "string"
        },
        {
          "internalType": "string",
          "name": "_president",
          "type": "string"
        },
        {
          "internalType": "string",
          "name": "_admin",
          "type": "string"
        },
        {
          "internalType": "uint256",
          "name": "_creationDate",
          "type": "uint256"
        }
      ],
      "stateMutability": "nonpayable",
      "type": "constructor"
    },
    {
      "inputs": [
        {
          "internalType": "address",
          "name": "owner",
          "type": "address"
        }
      ],
      "name": "OwnableInvalidOwner",
      "type": "error"
    },
    {
      "inputs": [
        {
          "internalType": "address",
          "name": "account",
          "type": "address"
        }
      ],
      "name": "OwnableUnauthorizedAccount",
      "type": "error"
    },
    {
      "anonymous": false,
      "inputs": [
        {
          "indexed": true,
          "internalType": "address",
          "name": "previousOwner",
          "type": "address"
        },
        {
          "indexed": true,
          "internalType": "address",
          "name": "newOwner",
          "type": "address"
        }
      ],
      "name": "OwnershipTransferred",
      "type": "event"
    },
    {
      "anonymous": false,
      "inputs": [
        {
          "indexed": false,
          "internalType": "uint256",
          "name": "proposalId",
          "type": "uint256"
        },
        {
          "indexed": false,
          "internalType": "string",
          "name": "description",
          "type": "string"
        }
      ],
      "name": "ProposalCreated",
      "type": "event"
    },
    {
      "anonymous": false,
      "inputs": [
        {
          "indexed": false,
          "internalType": "uint256",
          "name": "proposalId",
          "type": "uint256"
        }
      ],
      "name": "ProposalExecuted",
      "type": "event"
    },
    {
      "anonymous": false,
      "inputs": [
        {
          "indexed": false,
          "internalType": "uint256",
          "name": "proposalId",
          "type": "uint256"
        },
        {
          "indexed": false,
          "internalType": "address",
          "name": "voter",
          "type": "address"
        },
        {
          "indexed": false,
          "internalType": "uint256",
          "name": "votes",
          "type": "uint256"
        }
      ],
      "name": "VoteReceived",
      "type": "event"
    },
    {
      "inputs": [],
      "name": "adminName",
      "outputs": [
        {
          "internalType": "string",
          "name": "",
          "type": "string"
        }
      ],
      "stateMutability": "view",
      "type": "function"
    },
    {
      "inputs": [],
      "name": "communityAddress",
      "outputs": [
        {
          "internalType": "string",
          "name": "",
          "type": "string"
        }
      ],
      "stateMutability": "view",
      "type": "function"
    },
    {
      "inputs": [],
      "name": "communityName",
      "outputs": [
        {
          "internalType": "string",
          "name": "",
          "type": "string"
        }
      ],
      "stateMutability": "view",
      "type": "function"
    },
    {
      "inputs": [],
      "name": "creationDate",
      "outputs": [
        {
          "internalType": "uint256",
          "name": "",
          "type": "uint256"
        }
      ],
      "stateMutability": "view",
      "type": "function"
    },
    {
      "inputs": [
        {
          "internalType": "uint256",
          "name": "",
          "type": "uint256"
        },
        {
          "internalType": "address",
          "name": "",
          "type": "address"
        }
      ],
      "name": "hasVoted",
      "outputs": [
        {
          "internalType": "bool",
          "name": "",
          "type": "bool"
        }
      ],
      "stateMutability": "view",
      "type": "function"
    },
    {
      "inputs": [
        {
          "internalType": "address",
          "name": "",
          "type": "address"
        }
      ],
      "name": "memberTokens",
      "outputs": [
        {
          "internalType": "uint256",
          "name": "",
          "type": "uint256"
        }
      ],
      "stateMutability": "view",
      "type": "function"
    },
    {
      "inputs": [],
      "name": "owner",
      "outputs": [
        {
          "internalType": "address",
          "name": "",
          "type": "address"
        }
      ],
      "stateMutability": "view",
      "type": "function"
    },
    {
      "inputs": [],
      "name": "presidentName",
      "outputs": [
        {
          "internalType": "string",
          "name": "",
          "type": "string"
        }
      ],
      "stateMutability": "view",
      "type": "function"
    },
    {
      "inputs": [
        {
          "internalType": "uint256",
          "name": "",
          "type": "uint256"
        }
      ],
      "name": "proposals",
      "outputs": [
        {
          "internalType": "string",
          "name": "description",
          "type": "string"
        },
        {
          "internalType": "uint256",
          "name": "voteCount",
          "type": "uint256"
        },
        {
          "internalType": "bool",
          "name": "executed",
          "type": "bool"
        }
      ],
      "stateMutability": "view",
      "type": "function"
    },
    {
      "inputs": [],
      "name": "renounceOwnership",
      "outputs": [],
      "stateMutability": "nonpayable",
      "type": "function"
    },
    {
      "inputs": [
        {
          "internalType": "address",
          "name": "newOwner",
          "type": "address"
        }
      ],
      "name": "transferOwnership",
      "outputs": [],
      "stateMutability": "nonpayable",
      "type": "function"
    },
    {
      "inputs": [
        {
          "internalType": "address",
          "name": "member",
          "type": "address"
        },
        {
          "internalType": "uint256",
          "name": "tokens",
          "type": "uint256"
        }
      ],
      "name": "registerMember",
      "outputs": [],
      "stateMutability": "nonpayable",
      "type": "function"
    },
    {
      "inputs": [
        {
          "internalType": "string",
          "name": "description",
          "type": "string"
        }
      ],
      "name": "createProposal",
      "outputs": [],
      "stateMutability": "nonpayable",
      "type": "function"
    },
    {
      "inputs": [
        {
          "internalType": "uint256",
          "name": "proposalId",
          "type": "uint256"
        },
        {
          "internalType": "uint256",
          "name": "votes",
          "type": "uint256"
        }
      ],
      "name": "voteOnProposal",
      "outputs": [],
      "stateMutability": "nonpayable",
      "type": "function"
    },
    {
      "inputs": [
        {
          "internalType": "uint256",
          "name": "proposalId",
          "type": "uint256"
        }
      ],
      "name": "executeProposal",
      "outputs": [],
      "stateMutability": "nonpayable",
      "type": "function"
    }
  ],
  "bytecode": "0x608060405234801562000010575f80fd5b5060405162001e7338038062001e73833981810160405281019062000036919062000394565b335f73ffffffffffffffffffffffffffffffffffffffff168173ffffffffffffffffffffffffffffffffffffffff1603620000aa575f6040517f1e4fbdf7000000000000000000000000000000000000000000000000000000008152600401620000a19190620004d7565b60405180910390fd5b620000bb816200011660201b60201c565b508460019081620000cd919062000720565b508360029081620000df919062000720565b508260039081620000f1919062000720565b50816004908162000103919062000720565b5080600581905550505050505062000804565b5f805f9054906101000a900473ffffffffffffffffffffffffffffffffffffffff169050815f806101000a81548173ffffffffffffffffffffffffffffffffffffffff021916908373ffffffffffffffffffffffffffffffffffffffff1602179055508173ffffffffffffffffffffffffffffffffffffffff168173ffffffffffffffffffffffffffffffffffffffff167f8be0079c531659141344cd1fd0a4f28419497f9722a3daafe3b4186f6b6457e060405160405180910390a35050565b5f604051905090565b5f80fd5b5f80fd5b5f80fd5b5f80fd5b5f601f19601f8301169050919050565b7f4e487b71000000000000000000000000000000000000000000000000000000005f52604160045260245ffd5b6200023882620001f0565b810181811067ffffffffffffffff821117156200025a576200025962000200565b5b80604052505050565b5f6200026e620001d7565b90506200027c82826200022d565b919050565b5f67ffffffffffffffff8211156200029e576200029d62000200565b5b620002a982620001f0565b9050602081019050919050565b5f5b83811015620002d5578082015181840152602081019050620002b8565b5f8484015250505050565b5f620002f6620002f08462000281565b62000263565b905082815260208101848484011115620003155762000314620001ec565b5b62000322848285620002b6565b509392505050565b5f82601f830112620003415762000340620001e8565b5b815162000353848260208601620002e0565b91505092915050565b5f819050919050565b62000370816200035c565b81146200037b575f80fd5b50565b5f815190506200038e8162000365565b92915050565b5f805f805f60a08688031215620003b057620003af620001e0565b5b5f86015167ffffffffffffffff811115620003d057620003cf620001e4565b5b620003de888289016200032a565b955050602086015167ffffffffffffffff811115620004025762000401620001e4565b5b62000410888289016200032a565b945050604086015167ffffffffffffffff811115620004345762000433620001e4565b5b62000442888289016200032a565b935050606086015167ffffffffffffffff811115620004665762000465620001e4565b5b62000474888289016200032a565b925050608062000487888289016200037e565b9150509295509295909350565b5f73ffffffffffffffffffffffffffffffffffffffff82169050919050565b5f620004bf8262000494565b9050919050565b620004d181620004b3565b82525050565b5f602082019050620004ec5f830184620004c6565b92915050565b5f81519050919050565b7f4e487b71000000000000000000000000000000000000000000000000000000005f52602260045260245ffd5b5f60028204905060018216806200054157607f821691505b602082108103620005575762000556620004fc565b5b50919050565b5f819050815f5260205f209050919050565b5f6020601f8301049050919050565b5f82821b905092915050565b5f60088302620005bb7fffffffffffffffffffffffffffffffffffffffffffffffffffffffffffffffff826200057e565b620005c786836200057e565b95508019841693508086168417925050509392505050565b5f819050919050565b5f6200060862000602620005fc846200035c565b620005df565b6200035c565b9050919050565b5f819050919050565b6200062383620005e8565b6200063b62000632826200060f565b8484546200058a565b825550505050565b5f90565b6200065162000643565b6200065e81848462000618565b505050565b5b818110156200068557620006795f8262000647565b60018101905062000664565b5050565b601f821115620006d4576200069e816200055d565b620006a9846200056f565b81016020851015620006b9578190505b620006d1620006c8856200056f565b83018262000663565b50505b505050565b5f82821c905092915050565b5f620006f65f1984600802620006d9565b1980831691505092915050565b5f620007108383620006e5565b9150826002028217905092915050565b6200072b82620004f2565b67ffffffffffffffff81111562000747576200074662000200565b5b62000753825462000529565b6200076082828562000689565b5f60209050601f83116001811462000796575f841562000781578287015190505b6200078d858262000703565b865550620007fc565b601f198416620007a6866200055d565b5f5b82811015620007cf57848901518255600182019150602085019450602081019050620007a8565b86831015620007ef5784890151620007eb601f891682620006e5565b8355505b6001600288020188555050505b505050505050565b61166180620008125f395ff3fe608060405234801561000f575f80fd5b50600436106100f3575f3560e01c806386e476dd11610095578063c6d572ae11610064578063c6d572ae1461025f578063d0590fec1461027d578063d2a7ebd11461029b578063f2fde38b146102b7576100f3565b806386e476dd146101d55780638da5cb5b146101f3578063a5c7900e14610211578063a8a23e3914610241576100f3565b806343859632116100d1578063438596321461016357806349c2a1a614610193578063556f6cc0146101af578063715018a6146101cb576100f3565b8063013cf08b146100f757806305b34410146101295780630d61b51914610147575b5f80fd5b610111600480360381019061010c9190610cc1565b6102d3565b60405161012093929190610d9f565b60405180910390f35b61013161039a565b60405161013e9190610ddb565b60405180910390f35b610161600480360381019061015c9190610cc1565b6103a0565b005b61017d60048036038101906101789190610e4e565b61048d565b60405161018a9190610e8c565b60405180910390f35b6101ad60048036038101906101a89190610fd1565b6104b7565b005b6101c960048036038101906101c49190611018565b610595565b005b6101d36107dd565b005b6101dd6107f0565b6040516101ea9190611056565b60405180910390f35b6101fb61087c565b6040516102089190611085565b60405180910390f35b61022b6004803603810190610226919061109e565b6108a3565b6040516102389190610ddb565b60405180910390f35b6102496108b8565b6040516102569190611056565b60405180910390f35b610267610944565b6040516102749190611056565b60405180910390f35b6102856109d0565b6040516102929190611056565b60405180910390f35b6102b560048036038101906102b091906110c9565b610a5c565b005b6102d160048036038101906102cc919061109e565b610aaa565b005b600781815481106102e2575f80fd5b905f5260205f2090600302015f91509050805f01805461030190611134565b80601f016020809104026020016040519081016040528092919081815260200182805461032d90611134565b80156103785780601f1061034f57610100808354040283529160200191610378565b820191905f5260205f20905b81548152906001019060200180831161035b57829003601f168201915b505050505090806001015490806002015f9054906101000a900460ff16905083565b60055481565b6103a8610b2e565b600781815481106103bc576103bb611164565b5b905f5260205f2090600302016002015f9054906101000a900460ff1615610418576040517f08c379a000000000000000000000000000000000000000000000000000000000815260040161040f906111db565b60405180910390fd5b60016007828154811061042e5761042d611164565b5b905f5260205f2090600302016002015f6101000a81548160ff0219169083151502179055507f712ae1383f79ac853f8d882153778e0260ef8f03b504e2866e0593e04d2b291f816040516104829190610ddb565b60405180910390a150565b6008602052815f5260405f20602052805f5260405f205f915091509054906101000a900460ff1681565b6104bf610b2e565b600760405180606001604052808381526020015f81526020015f1515815250908060018154018082558091505060019003905f5260205f2090600302015f909190919091505f820151815f0190816105179190611396565b50602082015181600101556040820151816002015f6101000a81548160ff02191690831515021790555050505f60016007805490506105569190611492565b90507f9c770c289ab5bf7e57cb1d23c8ceae993aea46eb64847072fd3d78ca60d3e43281836040516105899291906114c5565b60405180910390a15050565b8060065f3373ffffffffffffffffffffffffffffffffffffffff1673ffffffffffffffffffffffffffffffffffffffff1681526020019081526020015f20541015610615576040517f08c379a000000000000000000000000000000000000000000000000000000000815260040161060c9061153d565b60405180910390fd5b60085f8381526020019081526020015f205f3373ffffffffffffffffffffffffffffffffffffffff1673ffffffffffffffffffffffffffffffffffffffff1681526020019081526020015f205f9054906101000a900460ff16156106ae576040517f08c379a00000000000000000000000000000000000000000000000000000000081526004016106a5906115a5565b60405180910390fd5b80600783815481106106c3576106c2611164565b5b905f5260205f2090600302016001015f8282546106e091906115c3565b92505081905550600160085f8481526020019081526020015f205f3373ffffffffffffffffffffffffffffffffffffffff1673ffffffffffffffffffffffffffffffffffffffff1681526020019081526020015f205f6101000a81548160ff0219169083151502179055508060065f3373ffffffffffffffffffffffffffffffffffffffff1673ffffffffffffffffffffffffffffffffffffffff1681526020019081526020015f205f8282546107979190611492565b925050819055507f2dc7503cab0c8e53a50e982257f234b59eb2aff2d39dea8763e479a48f3bb22e8233836040516107d1939291906115f6565b60405180910390a15050565b6107e5610b2e565b6107ee5f610bb5565b565b600280546107fd90611134565b80601f016020809104026020016040519081016040528092919081815260200182805461082990611134565b80156108745780601f1061084b57610100808354040283529160200191610874565b820191905f5260205f20905b81548152906001019060200180831161085757829003601f168201915b505050505081565b5f805f9054906101000a900473ffffffffffffffffffffffffffffffffffffffff16905090565b6006602052805f5260405f205f915090505481565b600480546108c590611134565b80601f01602080910402602001604051908101604052809291908181526020018280546108f190611134565b801561093c5780601f106109135761010080835404028352916020019161093c565b820191905f5260205f20905b81548152906001019060200180831161091f57829003601f168201915b505050505081565b6001805461095190611134565b80601f016020809104026020016040519081016040528092919081815260200182805461097d90611134565b80156109c85780601f1061099f576101008083540402835291602001916109c8565b820191905f5260205f20905b8154815290600101906020018083116109ab57829003601f168201915b505050505081565b600380546109dd90611134565b80601f0160208091040260200160405190810160405280929190818152602001828054610a0990611134565b8015610a545780601f10610a2b57610100808354040283529160200191610a54565b820191905f5260205f20905b815481529060010190602001808311610a3757829003601f168201915b505050505081565b610a64610b2e565b8060065f8473ffffffffffffffffffffffffffffffffffffffff1673ffffffffffffffffffffffffffffffffffffffff1681526020019081526020015f20819055505050565b610ab2610b2e565b5f73ffffffffffffffffffffffffffffffffffffffff168173ffffffffffffffffffffffffffffffffffffffff1603610b22575f6040517f1e4fbdf7000000000000000000000000000000000000000000000000000000008152600401610b199190611085565b60405180910390fd5b610b2b81610bb5565b50565b610b36610c76565b73ffffffffffffffffffffffffffffffffffffffff16610b5461087c565b73ffffffffffffffffffffffffffffffffffffffff1614610bb357610b77610c76565b6040517f118cdaa7000000000000000000000000000000000000000000000000000000008152600401610baa9190611085565b60405180910390fd5b565b5f805f9054906101000a900473ffffffffffffffffffffffffffffffffffffffff169050815f806101000a81548173ffffffffffffffffffffffffffffffffffffffff021916908373ffffffffffffffffffffffffffffffffffffffff1602179055508173ffffffffffffffffffffffffffffffffffffffff168173ffffffffffffffffffffffffffffffffffffffff167f8be0079c531659141344cd1fd0a4f28419497f9722a3daafe3b4186f6b6457e060405160405180910390a35050565b5f33905090565b5f604051905090565b5f80fd5b5f80fd5b5f819050919050565b610ca081610c8e565b8114610caa575f80fd5b50565b5f81359050610cbb81610c97565b92915050565b5f60208284031215610cd657610cd5610c86565b5b5f610ce384828501610cad565b91505092915050565b5f81519050919050565b5f82825260208201905092915050565b5f5b83811015610d23578082015181840152602081019050610d08565b5f8484015250505050565b5f601f19601f8301169050919050565b5f610d4882610cec565b610d528185610cf6565b9350610d62818560208601610d06565b610d6b81610d2e565b840191505092915050565b610d7f81610c8e565b82525050565b5f8115159050919050565b610d9981610d85565b82525050565b5f6060820190508181035f830152610db78186610d3e565b9050610dc66020830185610d76565b610dd36040830184610d90565b949350505050565b5f602082019050610dee5f830184610d76565b92915050565b5f73ffffffffffffffffffffffffffffffffffffffff82169050919050565b5f610e1d82610df4565b9050919050565b610e2d81610e13565b8114610e37575f80fd5b50565b5f81359050610e4881610e24565b92915050565b5f8060408385031215610e6457610e63610c86565b5b5f610e7185828601610cad565b9250506020610e8285828601610e3a565b9150509250929050565b5f602082019050610e9f5f830184610d90565b92915050565b5f80fd5b5f80fd5b7f4e487b71000000000000000000000000000000000000000000000000000000005f52604160045260245ffd5b610ee382610d2e565b810181811067ffffffffffffffff82111715610f0257610f01610ead565b5b80604052505050565b5f610f14610c7d565b9050610f208282610eda565b919050565b5f67ffffffffffffffff821115610f3f57610f3e610ead565b5b610f4882610d2e565b9050602081019050919050565b828183375f83830152505050565b5f610f75610f7084610f25565b610f0b565b905082815260208101848484011115610f9157610f90610ea9565b5b610f9c848285610f55565b509392505050565b5f82601f830112610fb857610fb7610ea5565b5b8135610fc8848260208601610f63565b91505092915050565b5f60208284031215610fe657610fe5610c86565b5b5f82013567ffffffffffffffff81111561100357611002610c8a565b5b61100f84828501610fa4565b91505092915050565b5f806040838503121561102e5761102d610c86565b5b5f61103b85828601610cad565b925050602061104c85828601610cad565b9150509250929050565b5f6020820190508181035f83015261106e8184610d3e565b905092915050565b61107f81610e13565b82525050565b5f6020820190506110985f830184611076565b92915050565b5f602082840312156110b3576110b2610c86565b5b5f6110c084828501610e3a565b91505092915050565b5f80604083850312156110df576110de610c86565b5b5f6110ec85828601610e3a565b92505060206110fd85828601610cad565b9150509250929050565b7f4e487b71000000000000000000000000000000000000000000000000000000005f52602260045260245ffd5b5f600282049050600182168061114b57607f821691505b60208210810361115e5761115d611107565b5b50919050565b7f4e487b71000000000000000000000000000000000000000000000000000000005f52603260045260245ffd5b7f50726f706f73616c20616c7265616479206578656375746564000000000000005f82015250565b5f6111c5601983610cf6565b91506111d082611191565b602082019050919050565b5f6020820190508181035f8301526111f2816111b9565b9050919050565b5f819050815f5260205f209050919050565b5f6020601f8301049050919050565b5f82821b905092915050565b5f600883026112557fffffffffffffffffffffffffffffffffffffffffffffffffffffffffffffffff8261121a565b61125f868361121a565b95508019841693508086168417925050509392505050565b5f819050919050565b5f61129a61129561129084610c8e565b611277565b610c8e565b9050919050565b5f819050919050565b6112b383611280565b6112c76112bf826112a1565b848454611226565b825550505050565b5f90565b6112db6112cf565b6112e68184846112aa565b505050565b5b81811015611309576112fe5f826112d3565b6001810190506112ec565b5050565b601f82111561134e5761131f816111f9565b6113288461120b565b81016020851015611337578190505b61134b6113438561120b565b8301826112eb565b50505b505050565b5f82821c905092915050565b5f61136e5f1984600802611353565b1980831691505092915050565b5f611386838361135f565b9150826002028217905092915050565b61139f82610cec565b67ffffffffffffffff8111156113b8576113b7610ead565b5b6113c28254611134565b6113cd82828561130d565b5f60209050601f8311600181146113fe575f84156113ec578287015190505b6113f6858261137b565b86555061145d565b601f19841661140c866111f9565b5f5b828110156114335784890151825560018201915060208501945060208101905061140e565b86831015611450578489015161144c601f89168261135f565b8355505b6001600288020188555050505b505050505050565b7f4e487b71000000000000000000000000000000000000000000000000000000005f52601160045260245ffd5b5f61149c82610c8e565b91506114a783610c8e565b92508282039050818111156114bf576114be611465565b5b92915050565b5f6040820190506114d85f830185610d76565b81810360208301526114ea8184610d3e565b90509392505050565b7f4e6f7420656e6f75676820746f6b656e7320746f20766f7465000000000000005f82015250565b5f611527601983610cf6565b9150611532826114f3565b602082019050919050565b5f6020820190508181035f8301526115548161151b565b9050919050565b7f416c726561647920766f746564000000000000000000000000000000000000005f82015250565b5f61158f600d83610cf6565b915061159a8261155b565b602082019050919050565b5f6020820190508181035f8301526115bc81611583565b9050919050565b5f6115cd82610c8e565b91506115d883610c8e565b92508282019050808211156115f0576115ef611465565b5b92915050565b5f6060820190506116095f830186610d76565b6116166020830185611076565b6116236040830184610d76565b94935050505056fea26469706673582212203bc8b0056342331ddd9f403610cabc22b32805f136996846d1eb79d4576f56fd64736f6c63430008150033",
  "immutableReferences": {},
  "source": "// SPDX-License-Identifier: MIT\r\npragma solidity >=0.8.21;\r\n\r\nimport \"@openzeppelin/contracts/access/Ownable.sol\";\r\nimport \"@openzeppelin/contracts/token/ERC20/ERC20.sol\";\r\n\r\ncontract Community is Ownable(msg.sender) {\r\n    string public communityName;\r\n    string public communityAddress;\r\n    string public presidentName;\r\n    string public adminName;\r\n    uint256 public creationDate;\r\n\r\n    mapping(address => uint256) public memberTokens;  // Tokens de votacin asignados a cada miembro\r\n    Proposal[] public proposals; // Lista de propuestas\r\n    mapping(uint256 => mapping(address => bool)) public hasVoted; // Mapping to track if a member has voted on a proposal\r\n\r\n    struct Proposal {\r\n        string description;\r\n        uint256 voteCount;\r\n        bool executed;\r\n    }\r\n\r\n    event ProposalCreated(uint256 proposalId, string description);\r\n    event VoteReceived(uint256 proposalId, address voter, uint256 votes);\r\n    event ProposalExecuted(uint256 proposalId);\r\n\r\n    constructor(\r\n        string memory _name,\r\n        string memory _address,\r\n        string memory _president,\r\n        string memory _admin,\r\n        uint256 _creationDate\r\n    ) {\r\n        communityName = _name;\r\n        communityAddress = _address;\r\n        presidentName = _president;\r\n        adminName = _admin;\r\n        creationDate = _creationDate;\r\n    }\r\n\r\n    function registerMember(address member, uint256 tokens) public onlyOwner {\r\n        memberTokens[member] = tokens;\r\n    }\r\n\r\n    function createProposal(string memory description) public onlyOwner {\r\n        proposals.push(Proposal({\r\n            description: description,\r\n            voteCount: 0,\r\n            executed: false\r\n        }));\r\n\r\n        uint256 newProposalId = proposals.length - 1;\r\n        emit ProposalCreated(newProposalId, description);\r\n    }\r\n\r\n    function voteOnProposal(uint256 proposalId, uint256 votes) public {\r\n        require(memberTokens[msg.sender] >= votes, \"Not enough tokens to vote\");\r\n        require(!hasVoted[proposalId][msg.sender], \"Already voted\");\r\n\r\n        proposals[proposalId].voteCount += votes;\r\n        hasVoted[proposalId][msg.sender] = true;\r\n        memberTokens[msg.sender] -= votes;\r\n\r\n        emit VoteReceived(proposalId, msg.sender, votes);\r\n    }\r\n\r\n    function executeProposal(uint256 proposalId) public onlyOwner {\r\n        require(!proposals[proposalId].executed, \"Proposal already executed\");\r\n        proposals[proposalId].executed = true;\r\n        // Logic to execute the proposal goes here\r\n\r\n        emit ProposalExecuted(proposalId);\r\n    }\r\n}\r\n",
  "sourcePath": "/home/ubuntu/Documents/GitHub/MiPrimeraDAODapp/contracts/Community.sol",
  "compiler": {
    "name": "solc",
    "version": "0.8.21+commit.d9974bed.Emscripten.clang"
  },
  "schemaVersion": "3.4.16",
  "updatedAt": "2024-04-15T23:44:32.527Z",
  "devdoc": {
    "errors": {
      "OwnableInvalidOwner(address)": [
        {
          "details": "The owner is not a valid owner account. (eg. `address(0)`)"
        }
      ],
      "OwnableUnauthorizedAccount(address)": [
        {
          "details": "The caller account is not authorized to perform an operation."
        }
      ]
    },
    "kind": "dev",
    "methods": {
      "owner()": {
        "details": "Returns the address of the current owner."
      },
      "renounceOwnership()": {
        "details": "Leaves the contract without owner. It will not be possible to call `onlyOwner` functions. Can only be called by the current owner. NOTE: Renouncing ownership will leave the contract without an owner, thereby disabling any functionality that is only available to the owner."
      },
      "transferOwnership(address)": {
        "details": "Transfers ownership of the contract to a new account (`newOwner`). Can only be called by the current owner."
      }
    },
    "version": 1
  },
  "userdoc": {
    "kind": "user",
    "methods": {},
    "version": 1
  }
}